{
  "contracts/funding/UnlimitedFundingStrategy.sol": {
    "UnlimitedFundingStrategy": {
      "abi": [
        {
          "inputs": [
            {
              "internalType": "uint256",
              "name": "_investment",
              "type": "uint256"
            },
            {
              "internalType": "uint256",
              "name": "_fullInvestmentReceived",
              "type": "uint256"
            }
          ],
          "name": "isFullInvestmentWithinLimit",
          "outputs": [
            {
              "internalType": "bool",
              "name": "",
              "type": "bool"
            }
          ],
          "stateMutability": "view",
          "type": "function"
        }
      ],
      "evm": {
        "bytecode": {
          "linkReferences": {},
          "object": "608060405234801561001057600080fd5b5060ba8061001f6000396000f3fe6080604052348015600f57600080fd5b506004361060285760003560e01c806306b9c58314602d575b600080fd5b606060048036036040811015604157600080fd5b8101908080359060200190929190803590602001909291905050506078565b60405180821515815260200191505060405180910390f35b6000600190509291505056fea26469706673582212202e80ff2d15be9533b81ec39c4921089caafc18784a1e4720d3e1e020ec11bd8064736f6c634300060c0033",
          "opcodes": "PUSH1 0x80 PUSH1 0x40 MSTORE CALLVALUE DUP1 ISZERO PUSH2 0x10 JUMPI PUSH1 0x0 DUP1 REVERT JUMPDEST POP PUSH1 0xBA DUP1 PUSH2 0x1F PUSH1 0x0 CODECOPY PUSH1 0x0 RETURN INVALID PUSH1 0x80 PUSH1 0x40 MSTORE CALLVALUE DUP1 ISZERO PUSH1 0xF JUMPI PUSH1 0x0 DUP1 REVERT JUMPDEST POP PUSH1 0x4 CALLDATASIZE LT PUSH1 0x28 JUMPI PUSH1 0x0 CALLDATALOAD PUSH1 0xE0 SHR DUP1 PUSH4 0x6B9C583 EQ PUSH1 0x2D JUMPI JUMPDEST PUSH1 0x0 DUP1 REVERT JUMPDEST PUSH1 0x60 PUSH1 0x4 DUP1 CALLDATASIZE SUB PUSH1 0x40 DUP2 LT ISZERO PUSH1 0x41 JUMPI PUSH1 0x0 DUP1 REVERT JUMPDEST DUP2 ADD SWAP1 DUP1 DUP1 CALLDATALOAD SWAP1 PUSH1 0x20 ADD SWAP1 SWAP3 SWAP2 SWAP1 DUP1 CALLDATALOAD SWAP1 PUSH1 0x20 ADD SWAP1 SWAP3 SWAP2 SWAP1 POP POP POP PUSH1 0x78 JUMP JUMPDEST PUSH1 0x40 MLOAD DUP1 DUP3 ISZERO ISZERO DUP2 MSTORE PUSH1 0x20 ADD SWAP2 POP POP PUSH1 0x40 MLOAD DUP1 SWAP2 SUB SWAP1 RETURN JUMPDEST PUSH1 0x0 PUSH1 0x1 SWAP1 POP SWAP3 SWAP2 POP POP JUMP INVALID LOG2 PUSH5 0x6970667358 0x22 SLT KECCAK256 0x2E DUP1 SELFDESTRUCT 0x2D ISZERO 0xBE SWAP6 CALLER 0xB8 0x1E 0xC3 SWAP13 0x49 0x21 ADDMOD SWAP13 0xAA 0xFC XOR PUSH25 0x4A1E4720D3E1E020EC11BD8064736F6C634300060C00330000 "
        },
        "methodIdentifiers": {
          "isFullInvestmentWithinLimit(uint256,uint256)": "06b9c583"
        }
      }
    }
  }
}