{
  "_format": "hh-sol-artifact-1",
  "contractName": "CappedFundingStrategy",
  "sourceName": "contracts/funding/CappedFundingStrategy.sol",
  "abi": [
    {
      "inputs": [
        {
          "internalType": "uint256",
          "name": "_fundingCap",
          "type": "uint256"
        }
      ],
      "stateMutability": "nonpayable",
      "type": "constructor"
    },
    {
      "inputs": [
        {
          "internalType": "uint256",
          "name": "_investment",
          "type": "uint256"
        },
        {
          "internalType": "uint256",
          "name": "_fullInvestmentReceived",
          "type": "uint256"
        }
      ],
      "name": "isFullInvestmentWithinLimit",
      "outputs": [
        {
          "internalType": "bool",
          "name": "",
          "type": "bool"
        }
      ],
      "stateMutability": "view",
      "type": "function"
    }
  ],
  "bytecode": "0x608060405234801561001057600080fd5b5060405161012b38038061012b8339818101604052602081101561003357600080fd5b81019080805190602001909291905050506000811161005157600080fd5b806000819055505060c4806100676000396000f3fe6080604052348015600f57600080fd5b506004361060285760003560e01c806306b9c58314602d575b600080fd5b606060048036036040811015604157600080fd5b8101908080359060200190929190803590602001909291905050506078565b60405180821515815260200191505060405180910390f35b600080600054848401109050809150509291505056fea2646970667358221220ad66e14516a3fe7647ba08a3792a88a25fcf06e2f7416898b48dede91d9b0be164736f6c634300060c0033",
  "linkReferences": {},
  "deployedLinkReferences": {}
}