{
  "_format": "hh-sol-artifact-1",
  "contractName": "UnlimitedFixedPricingCrowdsale",
  "sourceName": "contracts/crowdsale/UnlimitedFixedPricingCrowdsale.sol",
  "abi": [
    {
      "inputs": [
        {
          "internalType": "uint256",
          "name": "_startTime",
          "type": "uint256"
        },
        {
          "internalType": "uint256",
          "name": "_endTime",
          "type": "uint256"
        },
        {
          "internalType": "uint256",
          "name": "_weiTokenPrice",
          "type": "uint256"
        },
        {
          "internalType": "uint256",
          "name": "_etherInvestmentObjective",
          "type": "uint256"
        }
      ],
      "stateMutability": "payable",
      "type": "constructor"
    },
    {
      "anonymous": false,
      "inputs": [
        {
          "indexed": true,
          "internalType": "address",
          "name": "investor",
          "type": "address"
        },
        {
          "indexed": false,
          "internalType": "uint256",
          "name": "value",
          "type": "uint256"
        }
      ],
      "name": "LogInvestment",
      "type": "event"
    },
    {
      "anonymous": false,
      "inputs": [
        {
          "indexed": true,
          "internalType": "address",
          "name": "investor",
          "type": "address"
        },
        {
          "indexed": false,
          "internalType": "uint256",
          "name": "numTokens",
          "type": "uint256"
        }
      ],
      "name": "LogTokenAssignment",
      "type": "event"
    },
    {
      "anonymous": false,
      "inputs": [
        {
          "indexed": false,
          "internalType": "address",
          "name": "investor",
          "type": "address"
        },
        {
          "indexed": false,
          "internalType": "uint256",
          "name": "value",
          "type": "uint256"
        }
      ],
      "name": "Refund",
      "type": "event"
    },
    {
      "inputs": [],
      "name": "crowdsaleToken",
      "outputs": [
        {
          "internalType": "contract ReleasableSimpleCoin",
          "name": "",
          "type": "address"
        }
      ],
      "stateMutability": "view",
      "type": "function"
    },
    {
      "inputs": [
        {
          "internalType": "address payable",
          "name": "_recipient",
          "type": "address"
        }
      ],
      "name": "destroyAndSend",
      "outputs": [],
      "stateMutability": "nonpayable",
      "type": "function"
    },
    {
      "inputs": [],
      "name": "endTime",
      "outputs": [
        {
          "internalType": "uint256",
          "name": "",
          "type": "uint256"
        }
      ],
      "stateMutability": "view",
      "type": "function"
    },
    {
      "inputs": [],
      "name": "finalize",
      "outputs": [],
      "stateMutability": "nonpayable",
      "type": "function"
    },
    {
      "inputs": [],
      "name": "invest",
      "outputs": [],
      "stateMutability": "payable",
      "type": "function"
    },
    {
      "inputs": [
        {
          "internalType": "address",
          "name": "",
          "type": "address"
        }
      ],
      "name": "investmentAmountOf",
      "outputs": [
        {
          "internalType": "uint256",
          "name": "",
          "type": "uint256"
        }
      ],
      "stateMutability": "view",
      "type": "function"
    },
    {
      "inputs": [],
      "name": "investmentReceived",
      "outputs": [
        {
          "internalType": "uint256",
          "name": "",
          "type": "uint256"
        }
      ],
      "stateMutability": "view",
      "type": "function"
    },
    {
      "inputs": [],
      "name": "investmentRefunded",
      "outputs": [
        {
          "internalType": "uint256",
          "name": "",
          "type": "uint256"
        }
      ],
      "stateMutability": "view",
      "type": "function"
    },
    {
      "inputs": [],
      "name": "isFinalized",
      "outputs": [
        {
          "internalType": "bool",
          "name": "",
          "type": "bool"
        }
      ],
      "stateMutability": "view",
      "type": "function"
    },
    {
      "inputs": [],
      "name": "isRefundingAllowed",
      "outputs": [
        {
          "internalType": "bool",
          "name": "",
          "type": "bool"
        }
      ],
      "stateMutability": "view",
      "type": "function"
    },
    {
      "inputs": [],
      "name": "owner",
      "outputs": [
        {
          "internalType": "address",
          "name": "",
          "type": "address"
        }
      ],
      "stateMutability": "view",
      "type": "function"
    },
    {
      "inputs": [],
      "name": "pause",
      "outputs": [],
      "stateMutability": "nonpayable",
      "type": "function"
    },
    {
      "inputs": [],
      "name": "paused",
      "outputs": [
        {
          "internalType": "bool",
          "name": "",
          "type": "bool"
        }
      ],
      "stateMutability": "view",
      "type": "function"
    },
    {
      "inputs": [],
      "name": "refund",
      "outputs": [],
      "stateMutability": "nonpayable",
      "type": "function"
    },
    {
      "inputs": [],
      "name": "startTime",
      "outputs": [
        {
          "internalType": "uint256",
          "name": "",
          "type": "uint256"
        }
      ],
      "stateMutability": "view",
      "type": "function"
    },
    {
      "inputs": [],
      "name": "unpause",
      "outputs": [],
      "stateMutability": "nonpayable",
      "type": "function"
    },
    {
      "inputs": [],
      "name": "weiInvestmentObjective",
      "outputs": [
        {
          "internalType": "uint256",
          "name": "",
          "type": "uint256"
        }
      ],
      "stateMutability": "view",
      "type": "function"
    },
    {
      "inputs": [],
      "name": "weiTokenPrice",
      "outputs": [
        {
          "internalType": "uint256",
          "name": "",
          "type": "uint256"
        }
      ],
      "stateMutability": "view",
      "type": "function"
    }
  ],
  "bytecode": "0x608060405260008060146101000a81548160ff02191690831515021790555060405161244e38038061244e8339818101604052608081101561004057600080fd5b81019080805190602001909291908051906020019092919080519060200190929190805190602001909291905050508383838383838383336000806101000a81548173ffffffffffffffffffffffffffffffffffffffff021916908373ffffffffffffffffffffffffffffffffffffffff160217905550428410156100c457600080fd5b838310156100d157600080fd5b600082116100de57600080fd5b600081116100eb57600080fd5b83600181905550826002819055508160038190555080600481905550600060405161011590610241565b80828152602001915050604051809103906000f08015801561013b573d6000803e3d6000fd5b50600860026101000a81548173ffffffffffffffffffffffffffffffffffffffff021916908373ffffffffffffffffffffffffffffffffffffffff1602179055506000600860006101000a81548160ff0219169083151502179055506000600860016101000a81548160ff0219169083151502179055506101c061021160201b60201c565b600960006101000a81548173ffffffffffffffffffffffffffffffffffffffff021916908373ffffffffffffffffffffffffffffffffffffffff16021790555050505050505050505050505061025a565b600060405161021f9061024e565b604051809103906000f08015801561023b573d6000803e3d6000fd5b50905090565b61150880610e6d83390190565b60d98061237583390190565b610c04806102696000396000f3fe6080604052600436106101095760003560e01c80638d4e408311610095578063cb6f16d411610064578063cb6f16d414610341578063e8b5e51f1461036e578063ee56cf4114610378578063f5074f41146103a3578063fa65dfac146103f457610109565b80638d4e4083146102435780638da5cb5b14610270578063912e704e146102b1578063bab34f431461031657610109565b80634bb278f3116100dc5780634bb278f3146101a6578063590e1ae3146101bd5780635c975abb146101d457806378e97925146102015780638456cb591461022c57610109565b80631c0a5c101461010e5780633197cbb61461013957806338ef9380146101645780633f4ba83a1461018f575b600080fd5b34801561011a57600080fd5b50610123610435565b6040518082815260200191505060405180910390f35b34801561014557600080fd5b5061014e61043b565b6040518082815260200191505060405180910390f35b34801561017057600080fd5b50610179610441565b6040518082815260200191505060405180910390f35b34801561019b57600080fd5b506101a4610447565b005b3480156101b257600080fd5b506101bb6104d4565b005b3480156101c957600080fd5b506101d261062a565b005b3480156101e057600080fd5b506101e9610786565b60405180821515815260200191505060405180910390f35b34801561020d57600080fd5b50610216610799565b6040518082815260200191505060405180910390f35b34801561023857600080fd5b5061024161079f565b005b34801561024f57600080fd5b5061025861082e565b60405180821515815260200191505060405180910390f35b34801561027c57600080fd5b50610285610841565b604051808273ffffffffffffffffffffffffffffffffffffffff16815260200191505060405180910390f35b3480156102bd57600080fd5b50610300600480360360208110156102d457600080fd5b81019080803573ffffffffffffffffffffffffffffffffffffffff169060200190929190505050610865565b6040518082815260200191505060405180910390f35b34801561032257600080fd5b5061032b61087d565b6040518082815260200191505060405180910390f35b34801561034d57600080fd5b50610356610883565b60405180821515815260200191505060405180910390f35b610376610896565b005b34801561038457600080fd5b5061038d61096b565b6040518082815260200191505060405180910390f35b3480156103af57600080fd5b506103f2600480360360208110156103c657600080fd5b81019080803573ffffffffffffffffffffffffffffffffffffffff169060200190929190505050610971565b005b34801561040057600080fd5b506104096109e2565b604051808273ffffffffffffffffffffffffffffffffffffffff16815260200191505060405180910390f35b60065481565b60025481565b60075481565b60008054906101000a900473ffffffffffffffffffffffffffffffffffffffff1673ffffffffffffffffffffffffffffffffffffffff163373ffffffffffffffffffffffffffffffffffffffff161461049f57600080fd5b600060149054906101000a900460ff166104b857600080fd5b60008060146101000a81548160ff021916908315150217905550565b60008054906101000a900473ffffffffffffffffffffffffffffffffffffffff1673ffffffffffffffffffffffffffffffffffffffff163373ffffffffffffffffffffffffffffffffffffffff161461052c57600080fd5b600860009054906101000a900460ff161561054657600080fd5b60006002544211905060006004546006541015905081156106265780156105ee57600860029054906101000a900473ffffffffffffffffffffffffffffffffffffffff1673ffffffffffffffffffffffffffffffffffffffff166386d1a69f6040518163ffffffff1660e01b8152600401600060405180830381600087803b1580156105d157600080fd5b505af11580156105e5573d6000803e3d6000fd5b5050505061060a565b6001600860016101000a81548160ff0219169083151502179055505b6001600860006101000a81548160ff0219169083151502179055505b5050565b600860019054906101000a900460ff1661064357600080fd5b60003390506000600560008373ffffffffffffffffffffffffffffffffffffffff1673ffffffffffffffffffffffffffffffffffffffff168152602001908152602001600020549050600081141561069a57600080fd5b6000600560008473ffffffffffffffffffffffffffffffffffffffff1673ffffffffffffffffffffffffffffffffffffffff16815260200190815260200160002081905550806007600082825401925050819055507fbb28353e4598c3b9199101a66e0989549b659a59a54d2c27fbb183f1932c8e6d3382604051808373ffffffffffffffffffffffffffffffffffffffff1681526020018281526020019250505060405180910390a18173ffffffffffffffffffffffffffffffffffffffff166108fc829081150290604051600060405180830381858888f1935050505061078257600080fd5b5050565b600060149054906101000a900460ff1681565b60015481565b60008054906101000a900473ffffffffffffffffffffffffffffffffffffffff1673ffffffffffffffffffffffffffffffffffffffff163373ffffffffffffffffffffffffffffffffffffffff16146107f757600080fd5b600060149054906101000a900460ff161561081157600080fd5b6001600060146101000a81548160ff021916908315150217905550565b600860009054906101000a900460ff1681565b60008054906101000a900473ffffffffffffffffffffffffffffffffffffffff1681565b60056020528060005260406000206000915090505481565b60045481565b600860019054906101000a900460ff1681565b61089f34610a08565b6108a857600080fd5b6000339050600034905080600560008473ffffffffffffffffffffffffffffffffffffffff1673ffffffffffffffffffffffffffffffffffffffff16815260200190815260200160002060008282540192505081905550806006600082825401925050819055506109198282610afc565b8173ffffffffffffffffffffffffffffffffffffffff167fc74590e3281392e897f5c0f45530951cfe0db0e86c76d65af861e80b925871a4826040518082815260200191505060405180910390a25050565b60035481565b60008054906101000a900473ffffffffffffffffffffffffffffffffffffffff1673ffffffffffffffffffffffffffffffffffffffff163373ffffffffffffffffffffffffffffffffffffffff16146109c957600080fd5b8073ffffffffffffffffffffffffffffffffffffffff16ff5b600860029054906101000a900473ffffffffffffffffffffffffffffffffffffffff1681565b60008060008311905060006001544210158015610a2757506002544211155b9050818015610a335750805b8015610af35750600960009054906101000a900473ffffffffffffffffffffffffffffffffffffffff1673ffffffffffffffffffffffffffffffffffffffff166306b9c583856006546040518363ffffffff1660e01b8152600401808381526020018281526020019250505060206040518083038186803b158015610ab757600080fd5b505afa158015610acb573d6000803e3d6000fd5b505050506040513d6020811015610ae157600080fd5b81019080805190602001909291905050505b92505050919050565b6000610b0782610bb9565b9050600860029054906101000a900473ffffffffffffffffffffffffffffffffffffffff1673ffffffffffffffffffffffffffffffffffffffff166340c10f1984836040518363ffffffff1660e01b8152600401808373ffffffffffffffffffffffffffffffffffffffff16815260200182815260200192505050600060405180830381600087803b158015610b9c57600080fd5b505af1158015610bb0573d6000803e3d6000fd5b50505050505050565b60006003548281610bc657fe5b04905091905056fea2646970667358221220c1c8002da5d20a882a069ec6f0ec152a6c44f55da71393e1198c7a12f2fdb85d64736f6c634300060c003360806040526000600560006101000a81548160ff0219169083151502179055506000600560016101000a81548160ff02191690831515021790555034801561004657600080fd5b506040516115083803806115088339818101604052602081101561006957600080fd5b81019080805190602001909291905050508033600160006101000a81548173ffffffffffffffffffffffffffffffffffffffff021916908373ffffffffffffffffffffffffffffffffffffffff16021790555033600160006101000a81548173ffffffffffffffffffffffffffffffffffffffff021916908373ffffffffffffffffffffffffffffffffffffffff16021790555061012f600160009054906101000a900473ffffffffffffffffffffffffffffffffffffffff168261013660201b60201c565b5050610268565b600160009054906101000a900473ffffffffffffffffffffffffffffffffffffffff1673ffffffffffffffffffffffffffffffffffffffff163373ffffffffffffffffffffffffffffffffffffffff161461019057600080fd5b80600260008473ffffffffffffffffffffffffffffffffffffffff1673ffffffffffffffffffffffffffffffffffffffff168152602001908152602001600020600082825401925050819055508173ffffffffffffffffffffffffffffffffffffffff16600160009054906101000a900473ffffffffffffffffffffffffffffffffffffffff1673ffffffffffffffffffffffffffffffffffffffff167fddf252ad1be2c89b69c2b068fc378daa952ba7f163c4a11628f55a4df523b3ef836040518082815260200191505060405180910390a35050565b611291806102776000396000f3fe608060405234801561001057600080fd5b50600436106101165760003560e01c806386d1a69f116100a2578063b414d4b611610071578063b414d4b614610435578063dd62ed3e1461048f578063e724529c14610507578063f5074f4114610557578063fabde80c1461059b57610116565b806386d1a69f146103735780638da5cb5b1461037d57806396132521146103b1578063a9059cbb146103d157610116565b806340c10f19116100e957806340c10f191461022b57806355b6ed5c146102795780635c975abb146102f157806370a08231146103115780638456cb591461036957610116565b8063095ea7b31461011b57806318160ddd1461017f57806323b872dd1461019d5780633f4ba83a14610221575b600080fd5b6101676004803603604081101561013157600080fd5b81019080803573ffffffffffffffffffffffffffffffffffffffff169060200190929190803590602001909291905050506105f3565b60405180821515815260200191505060405180910390f35b6101876106e5565b6040518082815260200191505060405180910390f35b610209600480360360608110156101b357600080fd5b81019080803573ffffffffffffffffffffffffffffffffffffffff169060200190929190803573ffffffffffffffffffffffffffffffffffffffff169060200190929190803590602001909291905050506106eb565b60405180821515815260200191505060405180910390f35b61022961071d565b005b6102776004803603604081101561024157600080fd5b81019080803573ffffffffffffffffffffffffffffffffffffffff169060200190929190803590602001909291905050506107ad565b005b6102db6004803603604081101561028f57600080fd5b81019080803573ffffffffffffffffffffffffffffffffffffffff169060200190929190803573ffffffffffffffffffffffffffffffffffffffff1690602001909291905050506108df565b6040518082815260200191505060405180910390f35b6102f9610904565b60405180821515815260200191505060405180910390f35b6103536004803603602081101561032757600080fd5b81019080803573ffffffffffffffffffffffffffffffffffffffff169060200190929190505050610917565b6040518082815260200191505060405180910390f35b610371610960565b005b61037b6109f1565b005b610385610a68565b604051808273ffffffffffffffffffffffffffffffffffffffff16815260200191505060405180910390f35b6103b9610a8e565b60405180821515815260200191505060405180910390f35b61041d600480360360408110156103e757600080fd5b81019080803573ffffffffffffffffffffffffffffffffffffffff16906020019092919080359060200190929190505050610aa1565b60405180821515815260200191505060405180910390f35b6104776004803603602081101561044b57600080fd5b81019080803573ffffffffffffffffffffffffffffffffffffffff169060200190929190505050610ad1565b60405180821515815260200191505060405180910390f35b6104f1600480360360408110156104a557600080fd5b81019080803573ffffffffffffffffffffffffffffffffffffffff169060200190929190803573ffffffffffffffffffffffffffffffffffffffff169060200190929190505050610af1565b6040518082815260200191505060405180910390f35b6105556004803603604081101561051d57600080fd5b81019080803573ffffffffffffffffffffffffffffffffffffffff169060200190929190803515159060200190929190505050610b78565b005b6105996004803603602081101561056d57600080fd5b81019080803573ffffffffffffffffffffffffffffffffffffffff169060200190929190505050610c84565b005b6105dd600480360360208110156105b157600080fd5b81019080803573ffffffffffffffffffffffffffffffffffffffff169060200190929190505050610cf7565b6040518082815260200191505060405180910390f35b600081600360003373ffffffffffffffffffffffffffffffffffffffff1673ffffffffffffffffffffffffffffffffffffffff16815260200190815260200160002060008573ffffffffffffffffffffffffffffffffffffffff1673ffffffffffffffffffffffffffffffffffffffff168152602001908152602001600020819055508273ffffffffffffffffffffffffffffffffffffffff163373ffffffffffffffffffffffffffffffffffffffff167f8c5be1e5ebec7d5bd14f71427d1e84f3dd0314c0f7b2291e5b200ac8c7c3b925846040518082815260200191505060405180910390a36001905092915050565b60005481565b6000600560019054906101000a900460ff1661070657600080fd5b610711848484610d0f565b50600190509392505050565b600160009054906101000a900473ffffffffffffffffffffffffffffffffffffffff1673ffffffffffffffffffffffffffffffffffffffff163373ffffffffffffffffffffffffffffffffffffffff161461077757600080fd5b600560009054906101000a900460ff1661079057600080fd5b6000600560006101000a81548160ff021916908315150217905550565b600160009054906101000a900473ffffffffffffffffffffffffffffffffffffffff1673ffffffffffffffffffffffffffffffffffffffff163373ffffffffffffffffffffffffffffffffffffffff161461080757600080fd5b80600260008473ffffffffffffffffffffffffffffffffffffffff1673ffffffffffffffffffffffffffffffffffffffff168152602001908152602001600020600082825401925050819055508173ffffffffffffffffffffffffffffffffffffffff16600160009054906101000a900473ffffffffffffffffffffffffffffffffffffffff1673ffffffffffffffffffffffffffffffffffffffff167fddf252ad1be2c89b69c2b068fc378daa952ba7f163c4a11628f55a4df523b3ef836040518082815260200191505060405180910390a35050565b6003602052816000526040600020602052806000526040600020600091509150505481565b600560009054906101000a900460ff1681565b6000600260008373ffffffffffffffffffffffffffffffffffffffff1673ffffffffffffffffffffffffffffffffffffffff168152602001908152602001600020549050919050565b600160009054906101000a900473ffffffffffffffffffffffffffffffffffffffff1673ffffffffffffffffffffffffffffffffffffffff163373ffffffffffffffffffffffffffffffffffffffff16146109ba57600080fd5b600560009054906101000a900460ff16156109d457600080fd5b6001600560006101000a81548160ff021916908315150217905550565b600160009054906101000a900473ffffffffffffffffffffffffffffffffffffffff1673ffffffffffffffffffffffffffffffffffffffff163373ffffffffffffffffffffffffffffffffffffffff1614610a4b57600080fd5b6001600560016101000a81548160ff021916908315150217905550565b600160009054906101000a900473ffffffffffffffffffffffffffffffffffffffff1681565b600560019054906101000a900460ff1681565b6000600560019054906101000a900460ff16610abc57600080fd5b610ac6838361103f565b506001905092915050565b60046020528060005260406000206000915054906101000a900460ff1681565b6000600360008473ffffffffffffffffffffffffffffffffffffffff1673ffffffffffffffffffffffffffffffffffffffff16815260200190815260200160002060008373ffffffffffffffffffffffffffffffffffffffff1673ffffffffffffffffffffffffffffffffffffffff16815260200190815260200160002054905092915050565b600160009054906101000a900473ffffffffffffffffffffffffffffffffffffffff1673ffffffffffffffffffffffffffffffffffffffff163373ffffffffffffffffffffffffffffffffffffffff1614610bd257600080fd5b80600460008473ffffffffffffffffffffffffffffffffffffffff1673ffffffffffffffffffffffffffffffffffffffff16815260200190815260200160002060006101000a81548160ff0219169083151502179055507f67a17b8db8ff8fa7cff69c2328bf8a35f9be2c88abeea30be900fc28eece28ed8282604051808373ffffffffffffffffffffffffffffffffffffffff16815260200182151581526020019250505060405180910390a15050565b600160009054906101000a900473ffffffffffffffffffffffffffffffffffffffff1673ffffffffffffffffffffffffffffffffffffffff163373ffffffffffffffffffffffffffffffffffffffff1614610cde57600080fd5b8073ffffffffffffffffffffffffffffffffffffffff16ff5b60026020528060005260406000206000915090505481565b60008073ffffffffffffffffffffffffffffffffffffffff168373ffffffffffffffffffffffffffffffffffffffff161415610d4a57600080fd5b81600260008673ffffffffffffffffffffffffffffffffffffffff1673ffffffffffffffffffffffffffffffffffffffff1681526020019081526020016000205411610d9557600080fd5b600260008473ffffffffffffffffffffffffffffffffffffffff1673ffffffffffffffffffffffffffffffffffffffff1681526020019081526020016000205482600260008673ffffffffffffffffffffffffffffffffffffffff1673ffffffffffffffffffffffffffffffffffffffff16815260200190815260200160002054011015610e2257600080fd5b600360008573ffffffffffffffffffffffffffffffffffffffff1673ffffffffffffffffffffffffffffffffffffffff16815260200190815260200160002060003373ffffffffffffffffffffffffffffffffffffffff1673ffffffffffffffffffffffffffffffffffffffff16815260200190815260200160002054821115610eab57600080fd5b81600260008673ffffffffffffffffffffffffffffffffffffffff1673ffffffffffffffffffffffffffffffffffffffff1681526020019081526020016000206000828254039250508190555081600260008573ffffffffffffffffffffffffffffffffffffffff1673ffffffffffffffffffffffffffffffffffffffff1681526020019081526020016000206000828254019250508190555081600360008673ffffffffffffffffffffffffffffffffffffffff1673ffffffffffffffffffffffffffffffffffffffff16815260200190815260200160002060003373ffffffffffffffffffffffffffffffffffffffff1673ffffffffffffffffffffffffffffffffffffffff168152602001908152602001600020600082825403925050819055508273ffffffffffffffffffffffffffffffffffffffff168473ffffffffffffffffffffffffffffffffffffffff167fddf252ad1be2c89b69c2b068fc378daa952ba7f163c4a11628f55a4df523b3ef846040518082815260200191505060405180910390a3600190509392505050565b60008073ffffffffffffffffffffffffffffffffffffffff168373ffffffffffffffffffffffffffffffffffffffff16141561107a57600080fd5b81600260003373ffffffffffffffffffffffffffffffffffffffff1673ffffffffffffffffffffffffffffffffffffffff16815260200190815260200160002054116110c557600080fd5b600260008473ffffffffffffffffffffffffffffffffffffffff1673ffffffffffffffffffffffffffffffffffffffff1681526020019081526020016000205482600260008673ffffffffffffffffffffffffffffffffffffffff1673ffffffffffffffffffffffffffffffffffffffff1681526020019081526020016000205401101561115257600080fd5b81600260003373ffffffffffffffffffffffffffffffffffffffff1673ffffffffffffffffffffffffffffffffffffffff1681526020019081526020016000206000828254039250508190555081600260008573ffffffffffffffffffffffffffffffffffffffff1673ffffffffffffffffffffffffffffffffffffffff168152602001908152602001600020600082825401925050819055508273ffffffffffffffffffffffffffffffffffffffff163373ffffffffffffffffffffffffffffffffffffffff167fddf252ad1be2c89b69c2b068fc378daa952ba7f163c4a11628f55a4df523b3ef846040518082815260200191505060405180910390a3600190509291505056fea26469706673582212208a7a3c9443c46d19b623aa9fbf1ded7a2b4b871920ec4d0fb7caad123a8cac4564736f6c634300060c0033608060405234801561001057600080fd5b5060ba8061001f6000396000f3fe6080604052348015600f57600080fd5b506004361060285760003560e01c806306b9c58314602d575b600080fd5b606060048036036040811015604157600080fd5b8101908080359060200190929190803590602001909291905050506078565b60405180821515815260200191505060405180910390f35b6000600190509291505056fea26469706673582212202e80ff2d15be9533b81ec39c4921089caafc18784a1e4720d3e1e020ec11bd8064736f6c634300060c0033",
  "linkReferences": {},
  "deployedLinkReferences": {}
}